S0140000447331386232305F766572322E737265634E
S11300000C942A000C9447000C9447000C9447006D
S11300100C9447000C9447000C9447000C94470040
S11300200C9447000C9447000C9447000C94470030
S11300300C9447000C9447000C9447000C94470020
S11300400C9447000C9447000C9447000C94470010
S11300500C94470011241FBECFE5D8E0DEBFCDBF0E
S113006010E0A0E6B0E0ECE5FDE002C005900D92E2
S1130070AA37B107D9F720E0AAE7B0E001C01D9282
S1130080A038B207E1F70E94BF010C94AC060C94AF
S1130090000080E882BB95E59A95F1F7000012BA5A
S11300A0E7E0F2E03197F1F700C0000082BBF5ED24
S11300B0FA95F1F70000089580E881BB82B38F7749
S11300C082BB8FEF9EE00197F1F700C0000082B37E
S11300D0806882BB8FE292E00197F1F700C00000D4
S11300E011BA8FEC9CE00197F1F700C0000087E0A3
S11300F00895813091F480E881BB82B38F7782BB0D
S113010080E48A95F1F782B3806882BB8FEF91E037
S11301100197F1F700C000000895811112C080E832
S113012081BB82B38F7782BB8FED91E00197F1F7AA
S113013000C0000082B3806882BB9AE69A95F1F70A
S113014000C0089580E881BB82B38F7782BB80E4CE
S11301508A95F1F782B3806882BB90E69A95F1F7AD
S113016011BA87EB91E00197F1F700C0000087E036
S11301700895CF93DF93C82F88E006C08C2F817039
S11301800E947900C6958D2FDFEFD80F8111F6CF2D
S1130190DF91CF910895CF93DF9380E098E00AC078
S11301A0C82FC6950E94A20020E8829FC001112496
S11301B08C2B9D2FDFEFD90F9111F2CFDF91CF91CF
S11301C008950E9449000E945C008111FCCF8CECD0
S11301D00E94B90084E40E94B9002FEF8DE299E0F7
S11301E0215080409040E1F700C000000E94490087
S11301F00E945C008111FCCF8CEC0E94B9008EEB54
S11302000E94B9008FE891E00197F1F700C0000067
S1130210089588B3806F88BB88B3846088BB87B334
S11302208F7087BB96B3907F88B38B7F88BB88B36E
S1130230846088BB86B328B32B7F28BB82958F70DC
S1130240892B089528B32F70382F307F40E1849F85
S1130250C0011124922F932B98BB98B3946098BB40
S113026098B39B7F98BB822B88BB88B3846088BB80
S113027088B38B7F88BB0895CF93DF931F92CDB74C
S1130280DEB788B38E7F88BB88B3826088BB0E9448
S11302900901898389818823A4F388B38D7F88BB6E
S11302A08FEF87BB0F90DF91CF9108958FEF87BBBE
S11302B087BB88B38E7F88BB88B38D7F88BB88B3A8
S11302C08B7F88BB88B3846088BB88B3806288BB1B
S11302D088B38B7F88BB0E943C0188E20E94220184
S11302E00E943C018EE00E9422010E943C0188B3DE
S11302F08E7F88BB86E00E9422010E943C01089503
S1130300282F30E021503109862F90E4299F800D59
S1130310112498B39E7F98BB81580E9422010E94A9
S11303203C01089588B38E7F88BB81E00E9422013E
S11303300E943C01089598B3916098BB0E942201E9
S11303400E943C0108950F931F93CF93DF938C0178
S1130350D62FC0E00DC0F801EC0FF11D8081882379
S113036019F00E949B0103C080E20E949B01CF5FB1
S1130370CD1788F3DF91CF911F910F910895CF93FB
S1130380DF93CDB7DEB760970FB6F894DEBF0FBE2C
S1130390CDBF11BA80E882BB0E9456010E9492012F
S11303A061E081E00E9480016AE080E690E00E94C2
S11303B0A30188E40E949B010E94E1002FEF87EAD9
S11303C091E6215080409040E1F700C000000E9477
S11303D0E1000E94CB0090E090937B0080937A0030
S11303E00E94CB00082F10E0902F882700917A00FC
S11303F010917B00082B192B10937B0000937A003B
S1130400B801759567957595679575956795759513
S11304106795072E000C880B990B0E94C9026B018B
S11304207C01B8016F707727072E000C880B990B9D
S11304300E94C90220E030E040E85DE30E945503D9
S11304409B01AC01C701B6010E945B02262F372F26
S1130450462F572F682F792F40937C0050937D00AF
S113046060937E0070937F009F938F933F932F93AD
S11304708BE690E09F938F938E010F5F1F4F1F9326
S11304800F930E94C20361E082E00E94800160E158
S1130490C8010E94A3012FEF87E893E12150804017
S11304A09040E1F700C000000FB6F894DEBF0FBE25
S11304B0CDBF8DCF5058BB27AA270E9472020C943F
S11304C01B030E940D0338F00E94140320F039F43A
S11304D09F3F19F426F40C940A030EF4E095E7FB0D
S11304E00C940403E92F0E942C0358F3BA176207F3
S11304F073078407950720F079F4A6F50C944E034E
S11305000EF4E0950B2EBA2FA02D0B01B90190012A
S11305100C01CA01A0011124FF27591B99F0593F6E
S113052050F4503E68F11A16F040A22F232F342FB6
S11305304427585FF3CF469537952795A795F04004
S11305405395C9F77EF41F16BA0B620B730B840B19
S1130550BAF09150A1F0FF0FBB1F661F771F881FD1
S1130560C2F70EC0BA0F621F731F841F48F4879529
S113057077956795B795F7959E3F08F0B0CF93951B
S1130580880F08F09927EE0F979587950895E894BA
S113059009C097FB3EF490958095709561957F4FC7
S11305A08F4F9F4F9923A9F0F92F96E9BB27939575
S11305B0F695879577956795B795F111F8CFFAF485
S11305C0BB0F11F460FF1BC06F5F7F4F8F4F9F4FB6
S11305D016C0882311F096E911C0772321F09EE814
S11305E0872F762F05C0662371F096E8862F70E07A
S11305F060E02AF09A95660F771F881FDAF7880F54
S11306009695879597F9089597F99F6780E870E024
S113061060E008959FEF80EC089500240A94161674
S1130620170618060906089500240A9412161306DC
S1130630140605060895092E0394000C11F488236A
S113064052F0BB0F40F4BF2B11F460FF04C06F5F86
S11306507F4F8F4F9F4F089557FD9058440F551F5C
S113066059F05F3F71F04795880F97FB991F61F030
S11306709F3F79F087950895121613061406551FA7
S1130680F2CF4695F1DF08C0161617061806991F13
S1130690F1CF86957105610508940895E894BB2708
S11306A066277727CB0197F908950E9468030C9475
S11306B01B030E940D0338F00E94140320F09523BD
S11306C011F00C9404030C940A0311240C944F03AA
S11306D00E942C0370F3959FC1F3950F50E0551FB2
S11306E0629FF001729FBB27F00DB11D639FAA2783
S11306F0F00DB11DAA1F649F6627B00DA11D661FD2
S1130700829F2227B00DA11D621F739FB00DA11DF2
S1130710621F839FA00D611D221F749F3327A00DAC
S1130720611D231F849F600D211D822F762F6A2F48
S113073011249F5750409AF0F1F088234AF0EE0FAD
S1130740FF1FBB1F661F771F881F91505040A9F7DA
S11307509E3F510580F00C9404030C944F035F3FBB
S1130760E4F3983ED4F3869577956795B795F79516
S1130770E7959F5FC1F7FE2B880F911D969587958E
S113078097F90895AEE0B0E0E8ECF3E00C9483064A
S11307900D891E8986E08C831A8309838FEF9FE776
S11307A09E838D83AE01475E5F4F6F89788DCE0146
S11307B001960E94E403EF81F885E00FF11F108297
S11307C02E96E4E00C949F06ABE0B0E0EAEEF3E092
S11307D00C9475066C017B018A01FC011782168258
S11307E0838181FFCCC1CE0101963C01F601938146
S11307F0F70193FD859193FF81917F01882309F48B
S1130800BAC1853239F493FD859193FF81917F01BB
S1130810853229F4B60190E00E94DB05E7CF912CE4
S1130820212C312CFFE1F315D8F08B3279F038F418
S1130830803279F08332A1F4232D20611DC08D32E2
S113084061F0803369F4232D216016C0832D82600A
S1130850382EE32DE4603E2E2AC0F32DF8601DC02F
S113086037FC2DC020ED280F2A3040F08E32B9F429
S113087036FC81C1232D2064322E19C036FE06C0F9
S11308808AE0989E200D1124922E11C0EAE02E9E3B
S1130890200D1124222EF32DF0623F2E08C08C3639
S11308A021F4832D8068382E02C0883641F4F70184
S11308B093FD859193FF81917F018111B3CF982F8F
S11308C09F7D9554933028F40C5F1F4F9FE39983C9
S11308D00DC0833631F0833771F0833509F059C088
S11308E021C0F801808189830E5F1F4F882483947F
S11308F0912C530113C02801F2E04F0E511CF80152
S1130900A080B18036FE03C0692D70E002C06FEF95
S11309107FEFC5010E94D0054C018201F32DFF77C2
S11309203F2E16C0280122E0420E511CF801A0807F
S1130930B18036FE03C0692D70E002C06FEF7FEF17
S1130940C5010E94C5054C01F32DF0683F2E8201BC
S113095033FC1BC0822D90E088169906B0F4B601D2
S113096080E290E00E94DB052A94F4CFF50137FC85
S1130970859137FE81915F01B60190E00E94DB050D
S113098021102A9421E0821A91088114910471F7AC
S1130990E8C0843611F0893641F5F80137FE07C006
S11309A060817181828193810C5F1F4F08C06081D7
S11309B07181072E000C880B990B0E5F1F4FF32DCE
S11309C0FF763F2E97FF09C09095809570956195AD
S11309D07F4F8F4F9F4FF0683F2E2AE030E0A301F6
S11309E00E941706882E861845C0853731F4232DBA
S11309F02F7EB22E2AE030E025C0932D997FB92EA8
S1130A008F36C1F018F4883579F0B5C0803719F005
S1130A10883721F0B0C0E92FE061BE2EB4FE0DC0CE
S1130A20FB2DF460BF2E09C034FE0AC0292F2660B6
S1130A30B22E06C028E030E005C020E130E002C05C
S1130A4020E132E0F801B7FE07C060817181828144
S1130A5093810C5F1F4F06C06081718180E090E03C
S1130A600E5F1F4FA3010E941706882E8618FB2DC8
S1130A70FF773F2E36FE0DC0232D2E7FA22E891424
S1130A8058F434FE0BC032FC09C0832D8E7EA82E90
S1130A9005C0B82CA32C03C0B82C01C0B92CA4FEEB
S1130AA00FC0FE01E80DF11D8081803321F49A2DE1
S1130AB0997EA92E09C0A2FE06C0B394B39404C0C3
S1130AC08A2D867809F0B394A3FC11C0A0FE06C059
S1130AD0B21488F4280C922C9B180EC0B21460F443
S1130AE0B60180E290E00E94DB05B394F7CFB21424
S1130AF018F42B1802C0982C212CA4FE10C0B601A7
S1130B0080E390E00E94DB05A2FE17C0A1FC03C0B5
S1130B1088E790E002C088E590E0B6010CC08A2D19
S1130B20867859F0A1FE02C08BE201C080E2A7FCE6
S1130B308DE2B60190E00E94DB05891438F4B60119
S1130B4080E390E00E94DB059A94F7CF8A94F30146
S1130B50E80DF11D8081B60190E00E94DB05811053
S1130B60F5CF222009F442CEB60180E290E00E9443
S1130B70DB052A94F6CFF6018681978102C08FEFB8
S1130B809FEF2B96E2E10C949106FC0105906150D5
S1130B9070400110D8F7809590958E0F9F1F08958F
S1130BA0FC016150704001900110D8F78095909538
S1130BB08E0F9F1F08950F931F93CF93DF93FB0115
S1130BC0238121FD03C08FEF9FEF2CC022FF16C0AD
S1130BD046815781248135814217530744F4A0810B
S1130BE0B1819D012F5F3F4F318320838C932681F8
S1130BF037812F5F3F4F3783268314C08B01EC016D
S1130C00FB010084F185E02D0995892BE1F6D801DB
S1130C1016968D919C911797019617969C938E9397
S1130C201697CE01DF91CF911F910F910895FA018C
S1130C30AA27283051F1203181F1E8946F936E7F17
S1130C406E5F7F4F8F4F9F4FAF4FB1E03ED0B4E008
S1130C503CD0670F781F891F9A1FA11D680F791F49
S1130C608A1F911DA11D6A0F711D811D911DA11D5A
S1130C7020D009F468943F912AE0269F112430196A
S1130C80305D3193DEF6CF010895462F4770405D05
S1130C904193B3E00FD0C9F7F6CF462F4F70405DB4
S1130CA04A3318F0495D31FD4052419302D0A9F70F
S1130CB0EACFB4E0A6959795879577956795BA9509
S1130CC0C9F700976105710508959B01AC010A2ECF
S1130CD006945795479537952795BA95C9F7620FA6
S1130CE0731F841F951FA01D08952F923F924F924A
S1130CF05F926F927F928F929F92AF92BF92CF92A8
S1130D00DF92EF92FF920F931F93CF93DF93CDB7B0
S1130D10DEB7CA1BDB0B0FB6F894DEBF0FBECDBF28
S1130D2009942A88398848885F846E847D848C84F9
S1130D309B84AA84B984C884DF80EE80FD800C8102
S1130D401B81AA81B981CE0FD11D0FB6F894DEBFE5
S10F0D500FBECDBFED010895F894FFCF55
S1130D5C627569207472756F6E67006E686965746C
S10D0D6C646F3A252E32664300003E
S9030000FC
