:100000000C942A000C9498000C9447000C94470020
:100010000C9447000C9447000C9447000C94470044
:100020000C9447000C94EA000C9447000C94470091
:100030000C9447000C9447000C9447000C94470024
:100040000C9447000C9447000C9447000C94470014
:100050000C94470011241FBECFE5D8E0DEBFCDBF12
:1000600011E0A0E6B0E0E4E0F9E002C005900D92F6
:10007000A834B107D9F721E0A8E4B1E001C01D928E
:10008000AF35B207E1F70E94B9000C9480040C94DC
:1000900000008BBBA898A998AA9A82E08A95F1F7EC
:1000A00000C0AA988FE697E10197F1F700C0000021
:1000B00008958BBBA89AA998AA9A82E08A95F1F72D
:1000C00000C0AA988FEC97E00197F1F700C00000FC
:1000D00008958FEF8ABB84BB8FEC97E00197F1F70F
:1000E00000C0000088E30E9449008CE00E944900A3
:1000F00086E00E94490081E00E94490080E80E9459
:1001000049000895CF93DF93EC018881882331F073
:1001100021960E94590089918111FBCFDF91CF91E7
:10012000089511BA80E48BBF82E085BF789408956A
:100130001F920F920FB60F9211248F939F9380916D
:100140005D0190915E01019690935E0180935D0147
:100150009F918F910F900FBE0F901F90189582E086
:100160008EBD8FEA9CE39DBD8CBD84E089BF7894F1
:100170000895CF93DF93CDB7DEB72F970FB6F894DE
:10018000DEBF0FBECDBF0E94690087E0EAE2F1E06A
:10019000DE01119601900D928A95E1F788E0E1E386
:1001A000F1E0DE01189601900D928A95E1F780E862
:1001B0000E944900CE0101960E94820080EC0E94BC
:1001C0004900CE0108960E9482000E9491000E9480
:1001D000AF00FFCF1F920F920FB60F9211248F9294
:1001E0009F92AF92BF92CF92DF92EF92FF920F93C6
:1001F0001F932F933F934F935F936F937F938F93AF
:100200009F93AF93BF93CF93DF93EF93FF938FEAC7
:100210009CE39DBD8CBD80915C018F5F80935C01F0
:1002200080915C01843109F064C00F2EF0E68F2EBE
:10023000F0E09F2EF02DC0E0D0E00F2EF9E3AF2EBE
:10024000F1E0BF2EF02D0F2EF2E5EF2EF1E0FF2EA4
:10025000F02D0F2EF0E4CF2EF1E0DF2EF02D08E48C
:1002600011E0F401219131914F0180915D01909154
:100270005E012817390748F080915D0190915E0179
:10028000208131818217930758F42196C436D10515
:1002900041F710925C0110925E0110925D0129C03D
:1002A000DF93CF93BF92AF92FF92EF920E9496019D
:1002B00088E80E944900C7010E94820080915D0188
:1002C00090915E019F938F93DF92CF921F930F9334
:1002D0000E94960188EC0E944900C8010E94820099
:1002E000EDB7FEB73C960FB6F894FEBF0FBEEDBF5C
:1002F000CCCFFF91EF91DF91CF91BF91AF919F91C3
:100300008F917F916F915F914F913F912F911F91AD
:100310000F91FF90EF90DF90CF90BF90AF909F90A4
:100320008F900F900FBE0F901F901895AEE0B0E029
:10033000ECE9F1E00C9457040D891E8986E08C836A
:100340001A8309838FEF9FE79E838D83AE01475EFB
:100350005F4F6F89788DCE0101960E94B801EF81C1
:10036000F885E00FF11F10822E96E4E00C947304E0
:10037000ABE0B0E0EEEBF1E00C9449046C017B01E2
:100380008A01FC0117821682838181FFCCC1CE01D4
:1003900001963C01F6019381F70193FD859193FF4E
:1003A00081917F01882309F4BAC1853239F493FD24
:1003B000859193FF81917F01853229F4B60190E008
:1003C0000E94AF03E7CF912C212C312CFFE1F315D4
:1003D000D8F08B3279F038F4803279F08332A1F49E
:1003E000232D20611DC08D3261F0803369F4232DEF
:1003F000216016C0832D8260382EE32DE4603E2EEE
:100400002AC0F32DF8601DC037FC2DC020ED280F49
:100410002A3040F08E32B9F436FC81C1232D20649D
:10042000322E19C036FE06C08AE0989E200D112497
:10043000922E11C0EAE02E9E200D1124222EF32DC3
:10044000F0623F2E08C08C3621F4832D8068382E50
:1004500002C0883641F4F70193FD859193FF8191A5
:100460007F018111B3CF982F9F7D9554933028F44D
:100470000C5F1F4F9FE399830DC0833631F08337A4
:1004800071F0833509F059C021C0F801808189835A
:100490000E5F1F4F88248394912C530113C02801B1
:1004A000F2E04F0E511CF801A080B18036FE03C06F
:1004B000692D70E002C06FEF7FEFC5010E94A403B9
:1004C0004C018201F32DFF773F2E16C0280122E058
:1004D000420E511CF801A080B18036FE03C0692D88
:1004E00070E002C06FEF7FEFC5010E9499034C01DD
:1004F000F32DF0683F2E820133FC1BC0822D90E06B
:1005000088169906B0F4B60180E290E00E94AF032D
:100510002A94F4CFF50137FC859137FE81915F0174
:10052000B60190E00E94AF0321102A9421E0821AC4
:1005300091088114910471F7E8C0843611F089366E
:1005400041F5F80137FE07C0608171818281938196
:100550000C5F1F4F08C060817181072E000C880B53
:10056000990B0E5F1F4FF32DFF763F2E97FF09C0AB
:1005700090958095709561957F4F8F4F9F4FF06854
:100580003F2E2AE030E0A3010E94EB03882E86185C
:1005900045C0853731F4232D2F7EB22E2AE030E07E
:1005A00025C0932D997FB92E8F36C1F018F4883568
:1005B00079F0B5C0803719F0883721F0B0C0E92F45
:1005C000E061BE2EB4FE0DC0FB2DF460BF2E09C04D
:1005D00034FE0AC0292F2660B22E06C028E030E083
:1005E00005C020E130E002C020E132E0F801B7FEB2
:1005F00007C060817181828193810C5F1F4F06C0AB
:100600006081718180E090E00E5F1F4FA3010E9426
:10061000EB03882E8618FB2DFF773F2E36FE0DC08C
:10062000232D2E7FA22E891458F434FE0BC032FCE9
:1006300009C0832D8E7EA82E05C0B82CA32C03C024
:10064000B82C01C0B92CA4FE0FC0FE01E80DF11DAD
:100650008081803321F49A2D997EA92E09C0A2FEB3
:1006600006C0B394B39404C08A2D867809F0B3947D
:10067000A3FC11C0A0FE06C0B21488F4280C922C72
:100680009B180EC0B21460F4B60180E290E00E94A4
:10069000AF03B394F7CFB21418F42B1802C0982C00
:1006A000212CA4FE10C0B60180E390E00E94AF03AD
:1006B000A2FE17C0A1FC03C088E790E002C088E555
:1006C00090E0B6010CC08A2D867859F0A1FE02C0D8
:1006D0008BE201C080E2A7FC8DE2B60190E00E94AF
:1006E000AF03891438F4B60180E390E00E94AF03B1
:1006F0009A94F7CF8A94F301E80DF11D8081B60139
:1007000090E00E94AF038110F5CF222009F442CE81
:10071000B60180E290E00E94AF032A94F6CFF60182
:100720008681978102C08FEF9FEF2B96E2E10C94B8
:100730006504FC010590615070400110D8F7809568
:1007400090958E0F9F1F0895FC016150704001909D
:100750000110D8F7809590958E0F9F1F08950F93E5
:100760001F93CF93DF93FB01238121FD03C08FEF04
:100770009FEF2CC022FF16C046815781248135810E
:100780004217530744F4A081B1819D012F5F3F4F71
:10079000318320838C93268137812F5F3F4F3783AE
:1007A000268314C08B01EC01FB010084F185E02D50
:1007B0000995892BE1F6D80116968D919C91179792
:1007C000019617969C938E931697CE01DF91CF9149
:1007D0001F910F910895FA01AA27283051F1203175
:1007E00081F1E8946F936E7F6E5F7F4F8F4F9F4FC5
:1007F000AF4FB1E03ED0B4E03CD0670F781F891F07
:100800009A1FA11D680F791F8A1F911DA11D6A0FD4
:10081000711D811D911DA11D20D009F468943F9187
:100820002AE0269F11243019305D3193DEF6CF0186
:100830000895462F4770405D4193B3E00FD0C9F74C
:10084000F6CF462F4F70405D4A3318F0495D31FDB9
:100850004052419302D0A9F7EACFB4E0A69597950C
:10086000879577956795BA95C9F7009761057105E2
:1008700008959B01AC010A2E06945795479537952C
:100880002795BA95C9F7620F731F841F951FA01D86
:1008900008952F923F924F925F926F927F928F9224
:1008A0009F92AF92BF92CF92DF92EF92FF920F93FF
:1008B0001F93CF93DF93CDB7DEB7CA1BDB0B0FB609
:1008C000F894DEBF0FBECDBF09942A8839884888C6
:1008D0005F846E847D848C849B84AA84B984C8845C
:1008E000DF80EE80FD800C811B81AA81B981CE0F53
:1008F000D11D0FB6F894DEBF0FBECDBFED01089538
:04090000F894FFCF99
:10090400F21CE01CCE1CBD1CAC1C9B1C8B1C7A1C5A
:100914006A1C5B1C4B1C3C1C2D1C1E1C0F1C011C4C
:10092400F31BE41BD71BC91BBB1BAE1BA01B931BD8
:10093400861B791B6C1B5F1B531B461B391B2D1B12
:10094400211B141B081BFC1AF01AE41AD81ACC1A1F
:10095400C01AB41AA81A9C1A901A841A781A6C1A13
:10096400601A541A481A3C1A301A241A181A0C1A03
:10097400001AF319E719DB19CE19C219B519A81908
:100984009C198F198219751968195B194D19401929
:100994003219251917190919FB18ED18DF18D01881
:1009A400C218B318A5189618871878186818591813
:1009B40049183A182A181A180A18F917E917D817EB
:1009C400C717B617A51794178317446F20616D3A9C
:1009D4000054616E20736F3A0020256420252500A1
:0809E40020256420487A000080
:00000001FF
